{
  "contractName": "main",
  "abi": [
    {
      "constant": true,
      "inputs": [],
      "name": "userCount",
      "outputs": [
        {
          "internalType": "uint256",
          "name": "",
          "type": "uint256"
        }
      ],
      "payable": false,
      "stateMutability": "view",
      "type": "function"
    }
  ],
  "bytecode": "0x60806040526103e8600055348015601557600080fd5b506080806100246000396000f3fe6080604052348015600f57600080fd5b506004361060285760003560e01c806307973ccf14602d575b600080fd5b60336045565b60408051918252519081900360200190f35b6000548156fea265627a7a723158204246c5c0de783258c90b26a0712db33b4b6f8776e645d321752ba006243fc26a64736f6c63430005100032",
  "source": "\r\n// SPDX-License-Identifier: MIT\r\npragma solidity >=0.4.16 <0.9.0;\r\n\r\ncontract main {\r\n    uint public userCount = 1000;\r\n\r\n}",
  "sourcePath": "D:\\BlockchainProject\\contracts\\main.sol",
  "compiler": {
    "name": "solc",
    "version": "0.5.16+commit.9c3226ce.Emscripten.clang"
  },
  "schemaVersion": "3.4.10",
  "updatedAt": "2022-11-22T19:12:20.432Z",
  "networkType": "ethereum",
  "devdoc": {
    "methods": {}
  },
  "userdoc": {
    "methods": {}
  }
}