{
  "contractName": "main",
  "abi": [
    {
      "anonymous": false,
      "inputs": [
        {
          "indexed": false,
          "internalType": "uint256",
          "name": "caNumber",
          "type": "uint256"
        },
        {
          "indexed": false,
          "internalType": "uint256",
          "name": "billNumber",
          "type": "uint256"
        },
        {
          "indexed": false,
          "internalType": "string",
          "name": "billDate",
          "type": "string"
        },
        {
          "indexed": false,
          "internalType": "string",
          "name": "billTime",
          "type": "string"
        },
        {
          "indexed": false,
          "internalType": "string",
          "name": "userName",
          "type": "string"
        },
        {
          "indexed": false,
          "internalType": "uint256",
          "name": "units",
          "type": "uint256"
        },
        {
          "indexed": false,
          "internalType": "uint256",
          "name": "energyCharges",
          "type": "uint256"
        },
        {
          "indexed": false,
          "internalType": "uint256",
          "name": "additionalCharges",
          "type": "uint256"
        },
        {
          "indexed": false,
          "internalType": "uint256",
          "name": "netBill",
          "type": "uint256"
        }
      ],
      "name": "billGenerated",
      "type": "event"
    },
    {
      "anonymous": false,
      "inputs": [
        {
          "indexed": false,
          "internalType": "string",
          "name": "name",
          "type": "string"
        },
        {
          "indexed": false,
          "internalType": "string",
          "name": "email",
          "type": "string"
        },
        {
          "indexed": false,
          "internalType": "uint256",
          "name": "phone",
          "type": "uint256"
        },
        {
          "indexed": false,
          "internalType": "uint256",
          "name": "aadhar",
          "type": "uint256"
        },
        {
          "indexed": false,
          "internalType": "string",
          "name": "gender",
          "type": "string"
        },
        {
          "indexed": false,
          "internalType": "string",
          "name": "useraddress",
          "type": "string"
        }
      ],
      "name": "userCreated",
      "type": "event"
    },
    {
      "constant": true,
      "inputs": [],
      "name": "billCount",
      "outputs": [
        {
          "internalType": "uint256",
          "name": "",
          "type": "uint256"
        }
      ],
      "payable": false,
      "stateMutability": "view",
      "type": "function"
    },
    {
      "constant": true,
      "inputs": [
        {
          "internalType": "uint256",
          "name": "",
          "type": "uint256"
        }
      ],
      "name": "bills",
      "outputs": [
        {
          "internalType": "uint256",
          "name": "caNumber",
          "type": "uint256"
        },
        {
          "internalType": "uint256",
          "name": "billNumber",
          "type": "uint256"
        },
        {
          "internalType": "string",
          "name": "billDate",
          "type": "string"
        },
        {
          "internalType": "string",
          "name": "billTime",
          "type": "string"
        },
        {
          "internalType": "string",
          "name": "userName",
          "type": "string"
        },
        {
          "internalType": "uint256",
          "name": "units",
          "type": "uint256"
        },
        {
          "internalType": "uint256",
          "name": "energyCharges",
          "type": "uint256"
        },
        {
          "internalType": "uint256",
          "name": "additionalCharges",
          "type": "uint256"
        },
        {
          "internalType": "uint256",
          "name": "netBill",
          "type": "uint256"
        }
      ],
      "payable": false,
      "stateMutability": "view",
      "type": "function"
    },
    {
      "constant": true,
      "inputs": [],
      "name": "userCount",
      "outputs": [
        {
          "internalType": "uint256",
          "name": "",
          "type": "uint256"
        }
      ],
      "payable": false,
      "stateMutability": "view",
      "type": "function"
    },
    {
      "constant": true,
      "inputs": [
        {
          "internalType": "uint256",
          "name": "",
          "type": "uint256"
        }
      ],
      "name": "users",
      "outputs": [
        {
          "internalType": "string",
          "name": "name",
          "type": "string"
        },
        {
          "internalType": "string",
          "name": "email",
          "type": "string"
        },
        {
          "internalType": "uint256",
          "name": "phone",
          "type": "uint256"
        },
        {
          "internalType": "uint256",
          "name": "aadhar",
          "type": "uint256"
        },
        {
          "internalType": "string",
          "name": "gender",
          "type": "string"
        },
        {
          "internalType": "string",
          "name": "useraddress",
          "type": "string"
        }
      ],
      "payable": false,
      "stateMutability": "view",
      "type": "function"
    },
    {
      "constant": false,
      "inputs": [
        {
          "internalType": "string",
          "name": "_name",
          "type": "string"
        },
        {
          "internalType": "string",
          "name": "_email",
          "type": "string"
        },
        {
          "internalType": "uint256",
          "name": "_phone",
          "type": "uint256"
        },
        {
          "internalType": "uint256",
          "name": "_aadhar",
          "type": "uint256"
        },
        {
          "internalType": "string",
          "name": "_gender",
          "type": "string"
        },
        {
          "internalType": "string",
          "name": "_useraddress",
          "type": "string"
        }
      ],
      "name": "addUser",
      "outputs": [],
      "payable": false,
      "stateMutability": "nonpayable",
      "type": "function"
    },
    {
      "constant": false,
      "inputs": [
        {
          "internalType": "uint256",
          "name": "_caNumber",
          "type": "uint256"
        },
        {
          "internalType": "uint256",
          "name": "_billNumber",
          "type": "uint256"
        },
        {
          "internalType": "string",
          "name": "_billDate",
          "type": "string"
        },
        {
          "internalType": "string",
          "name": "_billTime",
          "type": "string"
        },
        {
          "internalType": "string",
          "name": "_userName",
          "type": "string"
        },
        {
          "internalType": "uint256",
          "name": "_units",
          "type": "uint256"
        },
        {
          "internalType": "uint256",
          "name": "_energyCharges",
          "type": "uint256"
        },
        {
          "internalType": "uint256",
          "name": "_additionalCharges",
          "type": "uint256"
        },
        {
          "internalType": "uint256",
          "name": "_netBill",
          "type": "uint256"
        }
      ],
      "name": "addBill",
      "outputs": [],
      "payable": false,
      "stateMutability": "nonpayable",
      "type": "function"
    }
  ],
  "bytecode": "0x6080604052620186a0600055606460015534801561001c57600080fd5b506112568061002c6000396000f3fe608060405234801561001057600080fd5b50600436106100625760003560e01c806307973ccf1461006757806320a1f3471461008157806328bdcde81461024f578063365b98b2146103da57806341dc3412146105af578063ea9f51ef146105b7575b600080fd5b61006f6107f6565b60408051918252519081900360200190f35b61024d600480360361012081101561009857600080fd5b813591602081013591810190606081016040820135600160201b8111156100be57600080fd5b8201836020820111156100d057600080fd5b803590602001918460018302840111600160201b831117156100f157600080fd5b91908080601f0160208091040260200160405190810160405280939291908181526020018383808284376000920191909152509295949360208101935035915050600160201b81111561014357600080fd5b82018360208201111561015557600080fd5b803590602001918460018302840111600160201b8311171561017657600080fd5b91908080601f0160208091040260200160405190810160405280939291908181526020018383808284376000920191909152509295949360208101935035915050600160201b8111156101c857600080fd5b8201836020820111156101da57600080fd5b803590602001918460018302840111600160201b831117156101fb57600080fd5b91908080601f01602080910402602001604051908101604052809392919081815260200183838082843760009201919091525092955050823593505050602081013590604081013590606001356107fc565b005b61026c6004803603602081101561026557600080fd5b5035610a85565b604051808a815260200189815260200180602001806020018060200188815260200187815260200186815260200185815260200184810384528b818151815260200191508051906020019080838360005b838110156102d55781810151838201526020016102bd565b50505050905090810190601f1680156103025780820380516001836020036101000a031916815260200191505b5084810383528a5181528a516020918201918c019080838360005b8381101561033557818101518382015260200161031d565b50505050905090810190601f1680156103625780820380516001836020036101000a031916815260200191505b5084810382528951815289516020918201918b019080838360005b8381101561039557818101518382015260200161037d565b50505050905090810190601f1680156103c25780820380516001836020036101000a031916815260200191505b509c5050505050505050505050505060405180910390f35b6103f7600480360360208110156103f057600080fd5b5035610c66565b604051808060200180602001878152602001868152602001806020018060200185810385528b818151815260200191508051906020019080838360005b8381101561044c578181015183820152602001610434565b50505050905090810190601f1680156104795780820380516001836020036101000a031916815260200191505b5085810384528a5181528a516020918201918c019080838360005b838110156104ac578181015183820152602001610494565b50505050905090810190601f1680156104d95780820380516001836020036101000a031916815260200191505b50858103835287518152875160209182019189019080838360005b8381101561050c5781810151838201526020016104f4565b50505050905090810190601f1680156105395780820380516001836020036101000a031916815260200191505b50858103825286518152865160209182019188019080838360005b8381101561056c578181015183820152602001610554565b50505050905090810190601f1680156105995780820380516001836020036101000a031916815260200191505b509a505050505050505050505060405180910390f35b61006f610ed9565b61024d600480360360c08110156105cd57600080fd5b810190602081018135600160201b8111156105e757600080fd5b8201836020820111156105f957600080fd5b803590602001918460018302840111600160201b8311171561061a57600080fd5b91908080601f0160208091040260200160405190810160405280939291908181526020018383808284376000920191909152509295949360208101935035915050600160201b81111561066c57600080fd5b82018360208201111561067e57600080fd5b803590602001918460018302840111600160201b8311171561069f57600080fd5b91908080601f0160208091040260200160405190810160405280939291908181526020018383808284376000920191909152509295843595602086013595919450925060608101915060400135600160201b8111156106fd57600080fd5b82018360208201111561070f57600080fd5b803590602001918460018302840111600160201b8311171561073057600080fd5b91908080601f0160208091040260200160405190810160405280939291908181526020018383808284376000920191909152509295949360208101935035915050600160201b81111561078257600080fd5b82018360208201111561079457600080fd5b803590602001918460018302840111600160201b831117156107b557600080fd5b91908080601f016020809104026020016040519081016040528093929190818152602001838380828437600092019190915250929550610edf945050505050565b60005481565b60018054810180825560408051610120810182528c815260208082018d81528284018d8152606084018d9052608084018c905260a084018b905260c084018a905260e084018990526101008401889052600095865260038352939094208251815593519484019490945590518051919361087e92600285019290910190611186565b506060820151805161089a916003840191602090910190611186565b50608082015180516108b6916004840191602090910190611186565b5060a0820151816005015560c0820151816006015560e0820151816007015561010082015181600801559050507fbe5b71d87b3a765e3be51fab84aae4b908cf51462e0b29c7501fabc1ed572676898989898989898989604051808a815260200189815260200180602001806020018060200188815260200187815260200186815260200185815260200184810384528b818151815260200191508051906020019080838360005b8381101561097657818101518382015260200161095e565b50505050905090810190601f1680156109a35780820380516001836020036101000a031916815260200191505b5084810383528a5181528a516020918201918c019080838360005b838110156109d65781810151838201526020016109be565b50505050905090810190601f168015610a035780820380516001836020036101000a031916815260200191505b5084810382528951815289516020918201918b019080838360005b83811015610a36578181015183820152602001610a1e565b50505050905090810190601f168015610a635780820380516001836020036101000a031916815260200191505b509c5050505050505050505050505060405180910390a1505050505050505050565b60036020908152600091825260409182902080546001808301546002808501805488519481161561010002600019011691909104601f810187900487028401870190975286835292959094919291830182828015610b245780601f10610af957610100808354040283529160200191610b24565b820191906000526020600020905b815481529060010190602001808311610b0757829003601f168201915b5050505060038301805460408051602060026001851615610100026000190190941693909304601f8101849004840282018401909252818152949594935090830182828015610bb45780601f10610b8957610100808354040283529160200191610bb4565b820191906000526020600020905b815481529060010190602001808311610b9757829003601f168201915b5050505060048301805460408051602060026001851615610100026000190190941693909304601f8101849004840282018401909252818152949594935090830182828015610c445780601f10610c1957610100808354040283529160200191610c44565b820191906000526020600020905b815481529060010190602001808311610c2757829003601f168201915b5050505050908060050154908060060154908060070154908060080154905089565b600260208181526000928352604092839020805484516001821615610100026000190190911693909304601f8101839004830284018301909452838352928391830182828015610cf75780601f10610ccc57610100808354040283529160200191610cf7565b820191906000526020600020905b815481529060010190602001808311610cda57829003601f168201915b505050505090806001018054600181600116156101000203166002900480601f016020809104026020016040519081016040528092919081815260200182805460018160011615610100020316600290048015610d955780601f10610d6a57610100808354040283529160200191610d95565b820191906000526020600020905b815481529060010190602001808311610d7857829003601f168201915b505050505090806002015490806003015490806004018054600181600116156101000203166002900480601f016020809104026020016040519081016040528092919081815260200182805460018160011615610100020316600290048015610e3f5780601f10610e1457610100808354040283529160200191610e3f565b820191906000526020600020905b815481529060010190602001808311610e2257829003601f168201915b5050505060058301805460408051602060026001851615610100026000190190941693909304601f8101849004840282018401909252818152949594935090830182828015610ecf5780601f10610ea457610100808354040283529160200191610ecf565b820191906000526020600020905b815481529060010190602001808311610eb257829003601f168201915b5050505050905086565b60015481565b600080546001018082556040805160c08101825289815260208082018a9052818301899052606082018890526080820187905260a08201869052928452600283529220825180519192610f3792849290910190611186565b506020828101518051610f509260018501920190611186565b50604082015160028201556060820151600382015560808201518051610f80916004840191602090910190611186565b5060a08201518051610f9c916005840191602090910190611186565b509050507f063241e2cceeeb370b14d6e0559205b2b13d0f79eb676c24a3efd1db13b495f5868686868686604051808060200180602001878152602001868152602001806020018060200185810385528b818151815260200191508051906020019080838360005b8381101561101c578181015183820152602001611004565b50505050905090810190601f1680156110495780820380516001836020036101000a031916815260200191505b5085810384528a5181528a516020918201918c019080838360005b8381101561107c578181015183820152602001611064565b50505050905090810190601f1680156110a95780820380516001836020036101000a031916815260200191505b50858103835287518152875160209182019189019080838360005b838110156110dc5781810151838201526020016110c4565b50505050905090810190601f1680156111095780820380516001836020036101000a031916815260200191505b50858103825286518152865160209182019188019080838360005b8381101561113c578181015183820152602001611124565b50505050905090810190601f1680156111695780820380516001836020036101000a031916815260200191505b509a505050505050505050505060405180910390a1505050505050565b828054600181600116156101000203166002900490600052602060002090601f016020900481019282601f106111c757805160ff19168380011785556111f4565b828001600101855582156111f4579182015b828111156111f45782518255916020019190600101906111d9565b50611200929150611204565b5090565b61121e91905b80821115611200576000815560010161120a565b9056fea265627a7a723158205bf9a13537b8e83a6c87beef0c6c70e213bb4db23a0607dd176909891ca492fe64736f6c63430005100032",
  "source": "\r\n// SPDX-License-Identifier: MIT\r\npragma solidity >=0.4.16 <0.9.0;\r\n\r\ncontract main {\r\n    uint public userCount = 100000;\r\n    uint public billCount = 100;   \r\n    \r\n\r\n    struct user{\r\n        string name;\r\n        string email;\r\n        uint phone;\r\n        uint aadhar;\r\n        string gender;\r\n        string useraddress;\r\n    }\r\n    struct bill{\r\n        uint caNumber;\r\n        uint billNumber;\r\n        string billDate;\r\n        string billTime;\r\n        string userName;\r\n        uint units;\r\n        uint energyCharges;\r\n        uint additionalCharges;\r\n        uint netBill;\r\n    }\r\n   \r\n\r\n    mapping (uint => user) public users;\r\n    mapping (uint => bill) public bills;\r\n\r\n    event userCreated(\r\n        string name,\r\n        string email,\r\n        uint phone,\r\n        uint aadhar,\r\n        string gender,\r\n        string useraddress\r\n    );\r\n    event billGenerated(\r\n        uint caNumber,\r\n        uint billNumber,\r\n        string billDate,\r\n        string billTime,\r\n        string userName,\r\n        uint units,\r\n        uint energyCharges,\r\n        uint additionalCharges,\r\n        uint netBill\r\n    );\r\n    \r\n    function addUser(string memory _name, string memory _email, uint  _phone,\r\n                        uint  _aadhar,string memory _gender,string memory _useraddress) public{\r\n        userCount++;\r\n        users[userCount] = user(_name,_email,_phone,_aadhar,_gender,_useraddress); \r\n        emit userCreated(_name, _email, _phone, _aadhar, _gender, _useraddress);\r\n    }\r\n\r\n    function addBill(uint _caNumber,\r\n    uint _billNumber,\r\n    string memory _billDate,\r\n    string memory _billTime,\r\n    string memory _userName,\r\n    uint _units,\r\n    uint _energyCharges,\r\n    uint _additionalCharges,\r\n    uint _netBill) public{\r\n    billCount++;\r\n    bills[billCount] = bill(_caNumber,_billNumber,_billDate,_billTime,_userName,_units,_energyCharges,_additionalCharges,_netBill); \r\n    emit billGenerated(_caNumber,_billNumber,_billDate,_billTime,_userName,_units,_energyCharges,_additionalCharges,_netBill);\r\n    }\r\n \r\n}",
  "sourcePath": "D:\\BlockchainProject\\contracts\\main.sol",
  "compiler": {
    "name": "solc",
    "version": "0.5.16+commit.9c3226ce.Emscripten.clang"
  },
  "schemaVersion": "3.4.10",
  "updatedAt": "2022-11-24T16:46:08.816Z",
  "networkType": "ethereum",
  "devdoc": {
    "methods": {}
  },
  "userdoc": {
    "methods": {}
  }
}