{
  "contractName": "main",
  "abi": [
    {
      "anonymous": false,
      "inputs": [
        {
          "indexed": false,
          "internalType": "string",
          "name": "name",
          "type": "string"
        },
        {
          "indexed": false,
          "internalType": "string",
          "name": "email",
          "type": "string"
        },
        {
          "indexed": false,
          "internalType": "uint256",
          "name": "phone",
          "type": "uint256"
        },
        {
          "indexed": false,
          "internalType": "uint256",
          "name": "aadhar",
          "type": "uint256"
        },
        {
          "indexed": false,
          "internalType": "string",
          "name": "gender",
          "type": "string"
        },
        {
          "indexed": false,
          "internalType": "string",
          "name": "useraddress",
          "type": "string"
        }
      ],
      "name": "userCreated",
      "type": "event"
    },
    {
      "constant": true,
      "inputs": [],
      "name": "billNo",
      "outputs": [
        {
          "internalType": "uint256",
          "name": "",
          "type": "uint256"
        }
      ],
      "payable": false,
      "stateMutability": "view",
      "type": "function"
    },
    {
      "constant": true,
      "inputs": [],
      "name": "userCount",
      "outputs": [
        {
          "internalType": "uint256",
          "name": "",
          "type": "uint256"
        }
      ],
      "payable": false,
      "stateMutability": "view",
      "type": "function"
    },
    {
      "constant": true,
      "inputs": [
        {
          "internalType": "uint256",
          "name": "",
          "type": "uint256"
        }
      ],
      "name": "users",
      "outputs": [
        {
          "internalType": "string",
          "name": "name",
          "type": "string"
        },
        {
          "internalType": "string",
          "name": "email",
          "type": "string"
        },
        {
          "internalType": "uint256",
          "name": "phone",
          "type": "uint256"
        },
        {
          "internalType": "uint256",
          "name": "aadhar",
          "type": "uint256"
        },
        {
          "internalType": "string",
          "name": "gender",
          "type": "string"
        },
        {
          "internalType": "string",
          "name": "useraddress",
          "type": "string"
        }
      ],
      "payable": false,
      "stateMutability": "view",
      "type": "function"
    },
    {
      "constant": false,
      "inputs": [
        {
          "internalType": "string",
          "name": "_name",
          "type": "string"
        },
        {
          "internalType": "string",
          "name": "_email",
          "type": "string"
        },
        {
          "internalType": "uint256",
          "name": "_phone",
          "type": "uint256"
        },
        {
          "internalType": "uint256",
          "name": "_aadhar",
          "type": "uint256"
        },
        {
          "internalType": "string",
          "name": "_gender",
          "type": "string"
        },
        {
          "internalType": "string",
          "name": "_useraddress",
          "type": "string"
        }
      ],
      "name": "addUser",
      "outputs": [],
      "payable": false,
      "stateMutability": "nonpayable",
      "type": "function"
    }
  ],
  "bytecode": "0x6080604052620186a0600055606460015534801561001c57600080fd5b50610a7f8061002c6000396000f3fe608060405234801561001057600080fd5b506004361061004c5760003560e01c806307973ccf146100515780632339c6a31461006b578063365b98b214610073578063ea9f51ef14610248575b600080fd5b610059610489565b60408051918252519081900360200190f35b61005961048f565b6100906004803603602081101561008957600080fd5b5035610495565b604051808060200180602001878152602001868152602001806020018060200185810385528b818151815260200191508051906020019080838360005b838110156100e55781810151838201526020016100cd565b50505050905090810190601f1680156101125780820380516001836020036101000a031916815260200191505b5085810384528a5181528a516020918201918c019080838360005b8381101561014557818101518382015260200161012d565b50505050905090810190601f1680156101725780820380516001836020036101000a031916815260200191505b50858103835287518152875160209182019189019080838360005b838110156101a557818101518382015260200161018d565b50505050905090810190601f1680156101d25780820380516001836020036101000a031916815260200191505b50858103825286518152865160209182019188019080838360005b838110156102055781810151838201526020016101ed565b50505050905090810190601f1680156102325780820380516001836020036101000a031916815260200191505b509a505050505050505050505060405180910390f35b610487600480360360c081101561025e57600080fd5b810190602081018135600160201b81111561027857600080fd5b82018360208201111561028a57600080fd5b803590602001918460018302840111600160201b831117156102ab57600080fd5b91908080601f0160208091040260200160405190810160405280939291908181526020018383808284376000920191909152509295949360208101935035915050600160201b8111156102fd57600080fd5b82018360208201111561030f57600080fd5b803590602001918460018302840111600160201b8311171561033057600080fd5b91908080601f0160208091040260200160405190810160405280939291908181526020018383808284376000920191909152509295843595602086013595919450925060608101915060400135600160201b81111561038e57600080fd5b8201836020820111156103a057600080fd5b803590602001918460018302840111600160201b831117156103c157600080fd5b91908080601f0160208091040260200160405190810160405280939291908181526020018383808284376000920191909152509295949360208101935035915050600160201b81111561041357600080fd5b82018360208201111561042557600080fd5b803590602001918460018302840111600160201b8311171561044657600080fd5b91908080601f016020809104026020016040519081016040528093929190818152602001838380828437600092019190915250929550610708945050505050565b005b60005481565b60015481565b600260208181526000928352604092839020805484516001821615610100026000190190911693909304601f81018390048302840183019094528383529283918301828280156105265780601f106104fb57610100808354040283529160200191610526565b820191906000526020600020905b81548152906001019060200180831161050957829003601f168201915b505050505090806001018054600181600116156101000203166002900480601f0160208091040260200160405190810160405280929190818152602001828054600181600116156101000203166002900480156105c45780601f10610599576101008083540402835291602001916105c4565b820191906000526020600020905b8154815290600101906020018083116105a757829003601f168201915b505050505090806002015490806003015490806004018054600181600116156101000203166002900480601f01602080910402602001604051908101604052809291908181526020018280546001816001161561010002031660029004801561066e5780601f106106435761010080835404028352916020019161066e565b820191906000526020600020905b81548152906001019060200180831161065157829003601f168201915b5050505060058301805460408051602060026001851615610100026000190190941693909304601f81018490048402820184019092528181529495949350908301828280156106fe5780601f106106d3576101008083540402835291602001916106fe565b820191906000526020600020905b8154815290600101906020018083116106e157829003601f168201915b5050505050905086565b600080546001018082556040805160c08101825289815260208082018a9052818301899052606082018890526080820187905260a08201869052928452600283529220825180519192610760928492909101906109af565b50602082810151805161077992600185019201906109af565b506040820151600282015560608201516003820155608082015180516107a99160048401916020909101906109af565b5060a082015180516107c59160058401916020909101906109af565b509050507f063241e2cceeeb370b14d6e0559205b2b13d0f79eb676c24a3efd1db13b495f5868686868686604051808060200180602001878152602001868152602001806020018060200185810385528b818151815260200191508051906020019080838360005b8381101561084557818101518382015260200161082d565b50505050905090810190601f1680156108725780820380516001836020036101000a031916815260200191505b5085810384528a5181528a516020918201918c019080838360005b838110156108a557818101518382015260200161088d565b50505050905090810190601f1680156108d25780820380516001836020036101000a031916815260200191505b50858103835287518152875160209182019189019080838360005b838110156109055781810151838201526020016108ed565b50505050905090810190601f1680156109325780820380516001836020036101000a031916815260200191505b50858103825286518152865160209182019188019080838360005b8381101561096557818101518382015260200161094d565b50505050905090810190601f1680156109925780820380516001836020036101000a031916815260200191505b509a505050505050505050505060405180910390a1505050505050565b828054600181600116156101000203166002900490600052602060002090601f016020900481019282601f106109f057805160ff1916838001178555610a1d565b82800160010185558215610a1d579182015b82811115610a1d578251825591602001919060010190610a02565b50610a29929150610a2d565b5090565b610a4791905b80821115610a295760008155600101610a33565b9056fea265627a7a723158207d4cc663c1d58a637f8c4552dfd7b8b0da43184ca57e2ff2103cc070cf257c9064736f6c63430005100032",
  "source": "\r\n// SPDX-License-Identifier: MIT\r\npragma solidity >=0.4.16 <0.9.0;\r\n\r\ncontract main {\r\n    uint public userCount = 100000;\r\n    uint public billNo = 100;\r\n\r\n    struct user{\r\n        string name;\r\n        string email;\r\n        uint phone;\r\n        uint aadhar;\r\n        string gender;\r\n        string useraddress;\r\n    }\r\n\r\n    mapping (uint => user) public users;\r\n\r\n    event userCreated(\r\n        string name,\r\n        string email,\r\n        uint phone,\r\n        uint aadhar,\r\n        string gender,\r\n        string useraddress\r\n    );\r\n    \r\n    function addUser(string memory _name, string memory _email, uint  _phone,\r\n                        uint  _aadhar,string memory _gender,string memory _useraddress) public{\r\n        userCount++;\r\n        users[userCount] = user(_name,_email,_phone,_aadhar,_gender,_useraddress); \r\n        emit userCreated(_name, _email, _phone, _aadhar, _gender, _useraddress);\r\n    }\r\n}",
  "sourcePath": "D:\\BlockchainProject\\contracts\\main.sol",
  "compiler": {
    "name": "solc",
    "version": "0.5.16+commit.9c3226ce.Emscripten.clang"
  },
  "schemaVersion": "3.4.10",
  "updatedAt": "2022-11-24T10:29:56.506Z",
  "networkType": "ethereum",
  "devdoc": {
    "methods": {}
  },
  "userdoc": {
    "methods": {}
  }
}